{
  "contractName": "SimpleBank",
  "abi": [
    {
      "anonymous": false,
      "inputs": [
        {
          "indexed": false,
          "internalType": "address",
          "name": "accountAddress",
          "type": "address"
        },
        {
          "indexed": false,
          "internalType": "uint256",
          "name": "amount",
          "type": "uint256"
        }
      ],
      "name": "LogDepositMade",
      "type": "event"
    },
    {
      "anonymous": false,
      "inputs": [
        {
          "indexed": false,
          "internalType": "address",
          "name": "accountAddress",
          "type": "address"
        }
      ],
      "name": "LogEnrolled",
      "type": "event"
    },
    {
      "anonymous": false,
      "inputs": [
        {
          "indexed": false,
          "internalType": "address",
          "name": "accountAddress",
          "type": "address"
        },
        {
          "indexed": false,
          "internalType": "uint256",
          "name": "withdrawAmount",
          "type": "uint256"
        },
        {
          "indexed": false,
          "internalType": "uint256",
          "name": "newBalance",
          "type": "uint256"
        }
      ],
      "name": "LogWithdrawal",
      "type": "event"
    },
    {
      "payable": true,
      "stateMutability": "payable",
      "type": "fallback"
    },
    {
      "constant": true,
      "inputs": [],
      "name": "owner",
      "outputs": [
        {
          "internalType": "address",
          "name": "",
          "type": "address"
        }
      ],
      "payable": false,
      "stateMutability": "view",
      "type": "function"
    },
    {
      "constant": true,
      "inputs": [],
      "name": "getBalance",
      "outputs": [
        {
          "internalType": "uint256",
          "name": "",
          "type": "uint256"
        }
      ],
      "payable": false,
      "stateMutability": "view",
      "type": "function"
    },
    {
      "constant": false,
      "inputs": [],
      "name": "enroll",
      "outputs": [
        {
          "internalType": "bool",
          "name": "",
          "type": "bool"
        }
      ],
      "payable": false,
      "stateMutability": "nonpayable",
      "type": "function"
    },
    {
      "constant": true,
      "inputs": [
        {
          "internalType": "address",
          "name": "_address",
          "type": "address"
        }
      ],
      "name": "getEnrolled",
      "outputs": [
        {
          "internalType": "bool",
          "name": "",
          "type": "bool"
        }
      ],
      "payable": false,
      "stateMutability": "view",
      "type": "function"
    },
    {
      "constant": false,
      "inputs": [],
      "name": "deposit",
      "outputs": [
        {
          "internalType": "uint256",
          "name": "",
          "type": "uint256"
        }
      ],
      "payable": true,
      "stateMutability": "payable",
      "type": "function"
    },
    {
      "constant": false,
      "inputs": [
        {
          "internalType": "uint256",
          "name": "withdrawAmount",
          "type": "uint256"
        }
      ],
      "name": "withdraw",
      "outputs": [
        {
          "internalType": "uint256",
          "name": "",
          "type": "uint256"
        }
      ],
      "payable": true,
      "stateMutability": "payable",
      "type": "function"
    }
  ],
  "bytecode": "0x608060405233600260006101000a81548173ffffffffffffffffffffffffffffffffffffffff021916908373ffffffffffffffffffffffffffffffffffffffff16021790555034801561005157600080fd5b5061078e806100616000396000f3fe6080604052600436106100555760003560e01c806312065fe01461005a5780632e1a7d4d146100855780638da5cb5b146100c7578063d0e30db01461011e578063e65f2a7e1461013c578063f5900cac1461016b575b600080fd5b34801561006657600080fd5b5061006f6101d4565b6040518082815260200191505060405180910390f35b6100b16004803603602081101561009b57600080fd5b810190808035906020019092919050505061021a565b6040518082815260200191505060405180910390f35b3480156100d357600080fd5b506100dc6103fc565b604051808273ffffffffffffffffffffffffffffffffffffffff1673ffffffffffffffffffffffffffffffffffffffff16815260200191505060405180910390f35b610126610422565b6040518082815260200191505060405180910390f35b34801561014857600080fd5b506101516105c1565b604051808215151515815260200191505060405180910390f35b34801561017757600080fd5b506101ba6004803603602081101561018e57600080fd5b81019080803573ffffffffffffffffffffffffffffffffffffffff169060200190929190505050610684565b604051808215151515815260200191505060405180910390f35b60008060003373ffffffffffffffffffffffffffffffffffffffff1673ffffffffffffffffffffffffffffffffffffffff16815260200190815260200160002054905090565b6000816000803373ffffffffffffffffffffffffffffffffffffffff1673ffffffffffffffffffffffffffffffffffffffff1681526020019081526020016000205410156102b3576040517f08c379a00000000000000000000000000000000000000000000000000000000081526004018080602001828103825260438152602001806107176043913960600191505060405180910390fd5b3373ffffffffffffffffffffffffffffffffffffffff166108fc839081150290604051600060405180830381858888f193505050501580156102f9573d6000803e3d6000fd5b50816000803373ffffffffffffffffffffffffffffffffffffffff1673ffffffffffffffffffffffffffffffffffffffff168152602001908152602001600020600082825403925050819055507ff9226daf630542048a23086c6af599511aac100ec8f532793cc9697d061bed7e33836000803373ffffffffffffffffffffffffffffffffffffffff1673ffffffffffffffffffffffffffffffffffffffff16815260200190815260200160002054604051808473ffffffffffffffffffffffffffffffffffffffff1673ffffffffffffffffffffffffffffffffffffffff168152602001838152602001828152602001935050505060405180910390a1919050565b600260009054906101000a900473ffffffffffffffffffffffffffffffffffffffff1681565b6000600160003373ffffffffffffffffffffffffffffffffffffffff1673ffffffffffffffffffffffffffffffffffffffff16815260200190815260200160002060009054906101000a900460ff166104c6576040517f08c379a000000000000000000000000000000000000000000000000000000000815260040180806020018281038252603c8152602001806106db603c913960400191505060405180910390fd5b346000803373ffffffffffffffffffffffffffffffffffffffff1673ffffffffffffffffffffffffffffffffffffffff168152602001908152602001600020600082825401925050819055507fa8126f7572bb1fdeae5b5aa9ec126438b91f658a07873f009d041ae690f3a1933334604051808373ffffffffffffffffffffffffffffffffffffffff1673ffffffffffffffffffffffffffffffffffffffff1681526020018281526020019250505060405180910390a16000803373ffffffffffffffffffffffffffffffffffffffff1673ffffffffffffffffffffffffffffffffffffffff16815260200190815260200160002054905090565b600060018060003373ffffffffffffffffffffffffffffffffffffffff1673ffffffffffffffffffffffffffffffffffffffff16815260200190815260200160002060006101000a81548160ff0219169083151502179055507f990c442e6adb818b8fa7db3cf1023decd07f7b66e5306928c7ed527d974192bb33604051808273ffffffffffffffffffffffffffffffffffffffff1673ffffffffffffffffffffffffffffffffffffffff16815260200191505060405180910390a16001905090565b6000600160008373ffffffffffffffffffffffffffffffffffffffff1673ffffffffffffffffffffffffffffffffffffffff16815260200190815260200160002060009054906101000a900460ff16905091905056fe4572726f723a20557365722073686f756c6420626520656e726f6c6c6564206265666f726520746865792063616e206d616b65206465706f736974734572726f723a20557365722062616c616e63652073686f756c64206265206174206c6561737420657175616c20746f2074686520776974686472617720616d6f756e74a265627a7a723158203867eb1181e16072e75ed38bcc8ab1a9665ed79743c9060ff2f3c4a5f5a0499c64736f6c63430005100032",
  "source": "/*\n * This exercise has been updated to use Solidity version 0.8.5\n * See the latest Solidity updates at\n * https://solidity.readthedocs.io/en/latest/080-breaking-changes.html\n */\n// SPDX-License-Identifier: MIT\npragma solidity >=0.5.16 <0.9.0;\n\ncontract SimpleBank {\n\n    /* State variables\n     */\n    \n    \n    // Fill in the visibility keyword.\n    // Hint: We want to protect our users balance from other contracts\n    mapping (address => uint) private balances ;\n    \n    // Fill in the visibility keyword\n    // Hint: We want to create a getter function and allow contracts to be able\n    //       to see if a user is enrolled.\n    mapping (address => bool) private enrolled;\n\n    // Let's make sure everyone knows who owns the bank, yes, fill in the\n    // appropriate visilibility keyword\n    address public owner = msg.sender;\n    \n    /* Events - publicize actions to external listeners\n     */\n\n    \n    // Add an argument for this event, an accountAddress\n    event LogEnrolled(address accountAddress);\n\n    // Add 2 arguments for this event, an accountAddress and an amount\n    event LogDepositMade(address accountAddress, uint amount);\n\n    // Create an event called LogWithdrawal\n    // Hint: it should take 3 arguments: an accountAddress, withdrawAmount and a newBalance \n    event LogWithdrawal(address accountAddress, uint withdrawAmount, uint newBalance);\n\n    /* Functions\n     */\n\n    // Fallback function - Called if other functions don't match call or\n    // sent ether without data\n    // Typically, called when invalid data is sent\n    // Added so ether sent to this contract is reverted if the contract fails\n    // otherwise, the sender's money is transferred to contract\n    function () external payable {\n        revert();\n    }\n\n    /// @notice Get balance\n    /// @return The balance of the user\n    function getBalance() public view returns (uint) {\n      // 1. A SPECIAL KEYWORD prevents function from editing state variables;\n      //    allows function to run locally/off blockchain\n      // 2. Get the balance of the sender of this transaction\n      return balances[msg.sender];\n    }\n\n    /// @notice Enroll a customer with the bank\n    /// @return The users enrolled status\n    // Emit the appropriate event\n    function enroll() public returns (bool){\n      // 1. enroll of the sender of this transaction\n      enrolled[msg.sender] = true;\n      emit LogEnrolled(msg.sender);\n      return true;\n    }\n\n    /// @notice Get enrolled\n    function getEnrolled(address _address) public view returns (bool) {\n      return enrolled[_address];\n    }\n\n    /// @notice Deposit ether into bank\n    /// @return The balance of the user after the deposit is made\n    function deposit() public payable returns (uint) {\n      // 1. Add the appropriate keyword so that this function can receive ether\n      // 2. Users should be enrolled before they can make deposits\n      require(enrolled[msg.sender],\"Error: User should be enrolled before they can make deposits\");\n      // 3. Add the amount to the user's balance. Hint: the amount can be\n      //    accessed from of the global variable `msg`\n      balances[msg.sender] += msg.value;\n      // 4. Emit the appropriate event associated with this function\n      emit LogDepositMade(msg.sender, msg.value);\n      // 5. return the balance of sndr of this transaction\n      return balances[msg.sender];\n    }\n\n    /// @notice Withdraw ether from bank\n    /// @dev This does not return any excess ether sent to it\n    /// @param withdrawAmount amount you want to withdraw\n    /// @return The balance remaining for the user\n    function withdraw(uint withdrawAmount) public payable returns (uint) {\n      // If the sender's balance is at least the amount they want to withdraw,\n      // Subtract the amount from the sender's balance, and try to send that amount of ether\n      // to the user attempting to withdraw. \n      // return the user's balance.\n\n      // 1. Use a require expression to guard/ensure sender has enough funds\n      require(balances[msg.sender]>=withdrawAmount,\"Error: User balance should be at least equal to the withdraw amount\");\n      // 2. Transfer Eth to the sender and decrement the withdrawal amount from\n      //    sender's balance\n      msg.sender.transfer(withdrawAmount);\n      balances[msg.sender] -= withdrawAmount;\n\n      // 3. Emit the appropriate event for this message\n      emit LogWithdrawal(msg.sender,withdrawAmount,balances[msg.sender]);\n    }\n}\n",
  "sourcePath": "/home/shakalee/Documents/Consensys/SimpleBankExercise/simple-bank-exercise-CodeFrite/contracts/SimpleBank.sol",
  "compiler": {
    "name": "solc",
    "version": "0.5.16+commit.9c3226ce.Emscripten.clang"
  },
  "schemaVersion": "3.4.3",
  "updatedAt": "2021-09-26T23:32:59.825Z",
  "networkType": "ethereum",
  "devdoc": {
    "methods": {
      "deposit()": {
        "return": "The balance of the user after the deposit is made"
      },
      "enroll()": {
        "return": "The users enrolled status"
      },
      "getBalance()": {
        "return": "The balance of the user"
      },
      "withdraw(uint256)": {
        "details": "This does not return any excess ether sent to it",
        "params": {
          "withdrawAmount": "amount you want to withdraw"
        },
        "return": "The balance remaining for the user"
      }
    }
  },
  "userdoc": {
    "methods": {
      "deposit()": {
        "notice": "Deposit ether into bank"
      },
      "enroll()": {
        "notice": "Enroll a customer with the bank"
      },
      "getBalance()": {
        "notice": "Get balance"
      },
      "getEnrolled(address)": {
        "notice": "Get enrolled"
      },
      "withdraw(uint256)": {
        "notice": "Withdraw ether from bank"
      }
    }
  }
}